:020000040800F2
:1000000000000220CD1900081D1900082B19000856
:1000100031190008371900083D19000800000000D8
:10002000000000000000000000000000431900086C
:1000300051190008000000005F1900086D19000840
:100040001D1A00081D1A00081D1A00081D1A0008B4
:100050001D1A00081D1A00081D1A00081D1A0008A4
:100060001D1A00081D1A00081D1A00081D1A000894
:100070001D1A00081D1A00081D1A00081D1A000884
:100080001D1A00081D1A00081D1A00081D1A000874
:100090001D1A00081D1A00081D1A00081D1A000864
:1000A0001D1A00081D1A00081D1A00081D1A000854
:1000B0001D1A0008791900081D1A00081D1A0008E9
:1000C0001D1A00081D1A00081D1A00081D1A000834
:1000D0001D1A00081D1A00088D1900081D1A0008B5
:1000E0001D1A00081D1A00081D1A00081D1A000814
:1000F0001D1A00081D1A00081D1A00081D1A000804
:100100001D1A00081D1A00081D1A00081D1A0008F3
:100110001D1A00081D1A00081D1A00081D1A0008E3
:100120001D1A00081D1A00081D1A00081D1A0008D3
:100130001D1A00081D1A00081D1A00081D1A0008C3
:100140001D1A00081D1A00081D1A00081D1A0008B3
:100150001D1A00081D1A00081D1A00081D1A0008A3
:100160001D1A00081D1A00081D1A00081D1A000893
:100170001D1A00081D1A00081D1A000800000000C2
:080180001D1A00081D1A0008F9
:1001880010B5054C237833B9044B13B10448AFF3C9
:1001980000800123237010BD0C0000200000000027
:1001A8008445000808B5034B1BB103490348AFF366
:1001B800008008BD000000001000002084450008F1
:1001C80053B94AB9002908BF00281CBF4FF0FF31B6
:1001D8004FF0FF3000F072B9ADF1080C6DE904CEB4
:1001E80000F006F8DDF804E0DDE9022304B070470A
:1001F8002DE9F047089E04468846002B4BD18A42D9
:10020800154667D9B2FA82F24AB1C2F1200701FA5B
:1002180002F320FA07F7954047EA030894404FEAAB
:10022800154E230CB8FBFEF71FFA85FC0EFB17884A
:1002380043EA084307FB0CF1994209D9EB1807F187
:10024800FF3080F01B81994240F21881023F2B4415
:100258005B1AA4B2B3FBFEF00EFB103344EA03446E
:1002680000FB0CFCA44509D92C1900F1FF3380F0E0
:100278000781A44540F2048102382C4440EA074033
:10028800A4EB0C0400271EB1D4400023C6E90043A8
:100298003946BDE8F0878B4209D9002E00F0EB8083
:1002A8000027C6E9000138463946BDE8F087B3FAA9
:1002B80083F7002F47D18B4202D3824200F2FA80A3
:1002C800841A61EB030301209846002EE0D0C6E9AA
:1002D8000048DDE702B9FFDEB2FA82F2002A40F0F8
:1002E8008F80491B4FEA154E1FFA85F80127B1FB8D
:1002F800FEFC230C0EFB1C1143EA014308FB0CF126
:10030800994207D9EB180CF1FF3002D2994200F25A
:10031800CD808446591AA3B2B1FBFEF00EFB10142F
:1003280043EA044408FB00F8A04507D92C1900F15A
:10033800FF3302D2A04500F2B6801846A4EB0804A9
:1003480040EA0C409FE7C7F1200CBB4022FA0CFEA4
:100358004EEA030E01FA07F420FA0CF521FA0CF321
:100368004FEA1E482543B3FBF8F92C0C08FB193358
:100378001FFA8EFA44EA034309FB0AF49C4202FA84
:1003880007F200FA07F10BD91EEB030309F1FF305E
:1003980080F087809C4240F28480A9F1020973446E
:1003A8001B1BADB2B3FBF8F008FB103345EA03445E
:1003B80000FB0AFAA24508D91EEB040400F1FF333A
:1003C8006BD2A24569D90238744440EA0940A0FBBF
:1003D8000289A4EB0A044C45C2464B4654D351D07B
:1003E800002E69D0B1EB0A0564EB030404FA0CFC97
:1003F800FD40FC404CEA0505C6E90054002747E7E4
:10040800C2F1200320FA03F7954001FA02F021FA1D
:1004180003F34FEA154E3843010CB3FBFEF71FFAFE
:1004280085F80EFB173341EA034107FB08F38B42BB
:1004380004FA02F407D9691807F1FF3C2FD28B425E
:100448002DD9023F2944CB1A81B2B3FBFEF00EFB33
:10045800103341EA034100FB08F38B4207D96918BE
:1004680000F1FF3C17D28B4215D902382944C91A2A
:1004780040EA07473BE73746304609E70746E7E6DD
:100488001846FBE64145ABD2B8EB020A69EB0E020F
:1004980001381346A4E76046E9E7184695E767463A
:1004A800D1E781467CE702382C4447E7ACF1020CDF
:1004B8002B442FE7384608E73746E9E6704700BF80
:1004C80080B582B000AF074B1B68DBB21A4679686B
:1004D800054800F00BF8786800F03CF800BF0837D2
:1004E800BD4680BD28D700208CD7002090B587B0A6
:1004F80000AFF860B9601346FB7107F117030122DA
:100508001946F86803F046F9FA79104B5B68FC7DE8
:100518000E49C82000FB02F20A441344083322465D
:100528001A700A4B5B68F97D084A134403F51C43AB
:1005380048330A461A70054B5B680133034A536017
:10054800034BBB6000BF1C37BD4690BD2800002090
:10055800709C0020F0B587B000AF7860B44B1B7872
:10056800184600F093FBB24B1B78002B40F08881B3
:10057800B04B1A78B04B1B681946104600F0A8FA21
:10058800AC4B1B78012B40F09180AC4B03F55643E4
:10059800E4331B787B614DE0A94B1B78184600F0CB
:1005A80011FBA64B03F55643EC331A68A3497B6944
:1005B8000B4403F51C4348331978A04B134403F547
:1005C8001D4311330A461A709D4B1B78012B0FD11E
:1005D8009A4B03F55643F03300221A70974B03F5F4
:1005E8005643E83300221A60964B01221A702AE01B
:1005F800934B1B78002B0FD1904B03F55643F033E8
:1006080001221A708D4B03F55643E83303221A6012
:100618008C4B01221A7016E0884B03F55643EC33D5
:100628001B685A1C854B03F55643EC331A607B69EB
:1006380001337B61814B03F55643E5331B781A463A
:100648007B699342A8DB7F4B1B78012B1CD07B4B2B
:1006580003F55643F13302221A7049F6404200214D
:10066800794803F083FFC8220021784803F07EFF11
:1006780064230E227649774802F0F3FF6F4B03F5A7
:100688005643F23301221A706C4B03F55643E43398
:1006980000221A70694B03F55643E53300221A709D
:1006A800654B00221A60634B00221A70634B03F5F6
:1006B8001C4350331B786E2B40F024815F4B03F5AD
:1006C8001C4351331B78652B40F01C815B4B03F5B1
:1006D8001C4352331B78772B40F01481574B03F59A
:1006E8001C435C331B78682B40F00C815A4B1A680A
:1006F800524B03F55643F4331A60584800F094FE01
:1007080003461B015EB2564800F08EFE03465BB2FC
:1007180033435BB2FB74534800F086FE03461B016B
:100728005EB2514800F080FE03465BB233435BB2D1
:10073800BB744E4800F078FE03461B015EB24C487D
:1007480000F072FE03465BB233435BB27B744948E8
:1007580000F06AFE03461B015EB2474800F064FEE3
:1007680003465BB233435BB23B74FA7C4FF0000341
:10077800150A1406BB7C1B041A464FF0000344EA12
:10078800020045EA030105460E467B7C1B024FEA40
:10079800E37445EA030146EA04023D7C4FF0000693
:1007A80045EA010346EA0204C7E90234BA68234B62
:1007B80003F55643F8331A60204B03F55643F433D8
:1007C8001B68B3F1FF3F0BD01C4B03F55643F433C2
:1007D8001A681A4B03F55643F8331B689A4223D01C
:1007E80049F640420021184803F0C0FEC822002103
:1007F800164803F0BBFE42F2107200211F4803F0B6
:10080800B5FE0E4B03F55643F13302221A706423EA
:100818000E220F490F4802F024FF084B03F55643F8
:10082800F23301221A706DE0064B04221A7069E057
:100838002CD700202DD7002030D7002028000020FA
:1008480034D7002040D7002030000020709C0020C2
:100858009C4500088CD70020008000087B9C002065
:100868007C9C00207D9C00207E9C00207F9C00209A
:10087800809C0020819C0020829C0020399D0020C3
:100888006A4B1B78012B20D1694B03F55643F13392
:100898001B781946674800F0BBFB674B00221A60BB
:1008A800634B03F55643F1331B78012B02D101202A
:1008B80000F0C4F85E4B03F55643F1331B78022B66
:1008C80020D1002000F0BAF81CE0584B1B78022B0E
:1008D80007D10121574800F09BFB022000F0AEF839
:1008E80010E0524B1B78032B0CD10121514800F02A
:1008F8008FFB032000F0A2F84D4B03F55643F2336B
:1009080001221A704A4B1B780A2B40F08A80484B08
:1009180000225A60474B1B680133464A1360454B17
:100928001B68032B7DD9424B03F51C4348331B78C6
:10093800452B41D13E4B03F51C4349331B78522BC1
:100948003AD13B4B03F51C434A331B78522B33D126
:10095800374B03F51C434B331B784F2B2CD1344BAF
:1009680003F51C434C331B78522B25D12F4B1A7897
:10097800304B1B681946104600F0F4F92B4B1B78D6
:10098800042B0DD101212B4800F042FB032000F07D
:1009980055F8274B03F55643F23301221A703FE00E
:1009A800224B1B78052B3BD10121224800F030FB5C
:1009B800022000F043F833E01D4B03F51C43483395
:1009C8001B784F2B2DD11A4B03F51C4349331B7849
:1009D8004B2B26D1154B1A78164B1B681946104617
:1009E80000F07CFA114B1B78062B0DD10121114820
:1009F80000F00EFB032000F021F80D4B03F55643E1
:100A0800F23301221A700CE0084B1B78072B08D12F
:100A18000121084800F0FCFA022000F00FF800E07D
:100A280000BF00BF1C37BD46F0BD00BF2CD700205B
:100A38002800002038D7002030D7002080B584B0A7
:100A480000AF0346FB710023FB810023BB60FB79E9
:100A5800042B26D801A252F823F000BF790A000817
:100A6800830A00088D0A0008970A0008A10A0008EE
:100A7800114BBB600323FB8113E0104BBB600423C5
:100A8800FB810EE00E4BBB602723FB8109E00D4B79
:100A9800BB600E23FB8104E00B4BBB600E23FB8184
:100AA80000BFFA896423B968084802F0DAFD00BF7C
:100AB8001037BD4680BD00BFAC450008B0450008F2
:100AC800B8450008E04500089C4500088CD7002080
:100AD80080B483B000AF03463960FB713B68023BCA
:100AE800354A134403F51C4348331B782D2B16D184
:100AF8003B68013B304A134403F51C4348331B78D9
:100B0800322B0CD12C4A3B68134403F51C43483361
:100B18001B782D2B03D1294B01221A701FE03B684B
:100B2800023B254A134403F51C4348331B782D2BFD
:100B380015D13B68013B204A134403F51C43483355
:100B48001B78312B0BD11C4A3B68134403F51C431B
:100B580048331B782D2B02D1194B01221A70174BE1
:100B68001B78012B10D10123FB713B68DBB2023BE0
:100B7800DAB2114B03F55643E5331A70104B0022D5
:100B88001A700E4B00221A703B6801333B600C4B05
:100B98001B78012B09D13B68DAB2074B03F55643A2
:100BA800E4331A70064B00221A7000BF0C37BD469A
:100BB8005DF8047B704700BF280000203CD7002068
:100BC8003DD7002080B483B000AF0346FB712E4BA5
:100BD80003F55643EC331B68023B2B4A134403F5D9
:100BE8001D4311331B782D2B1DD1274B03F556437D
:100BF800EC331B68013B244A134403F51D431133AE
:100C08001B78302B0FD1204B03F55643EC331B6870
:100C18001D4A134403F51D4311331B782D2B02D1B4
:100C28000123FB712AE0184B03F55643EC331B688C
:100C3800023B154A134403F51D4311331B782D2B32
:100C48001CD1114B03F55643EC331B68013B0E4A8C
:100C5800134403F51D4311331B78362B0ED10A4B71
:100C680003F55643EC331B68074A134403F51D4349
:100C780011331B782D2B01D10023FB7100BF0C37DA
:100C8800BD465DF8047B70472800002080B483B01F
:100C980000AF0346FB71324B03F51C4348331B7806
:100CA8002B2B02D10023FB7154E02D4B03F51C4381
:100CB80048331B783E2B02D10123FB714AE0284BB5
:100CC80003F51C4348331B78572B25D1244B03F5D8
:100CD8001C4349331B78492B1ED1214B03F51C4378
:100CE8004A331B78462B17D11D4B03F51C434B3356
:100CF8001B78492B10D11A4B03F51C434D331B7835
:100D0800472B09D1164B03F51C434E331B784F2B49
:100D180002D10223FB711DE0114B03F51C4348333C
:100D28001B78622B16D10E4B03F51C4349331B78F5
:100D3800752B0FD10A4B03F51C434A331B78732BD1
:100D480008D1074B03F51C434B331B78792B01D192
:100D58000323FB7100BF0C37BD465DF8047B704769
:100D68002800002080B483B000AF03463960FB71CF
:100D78003B68033B584AC82101FB03F3134408337B
:100D88001B78412B39D13B68033B534AC82101FBEF
:100D980003F3134409331B784C2B2ED13B68033BD8
:100DA8004D4AC82101FB03F313440A331B78522B25
:100DB80023D13B68033B484AC82101FB03F3134492
:100DC8000B331B78452B18D13B68033B424AC8219B
:100DD80001FB03F313440C331B78412B0DD13B6803
:100DE800033B3D4AC82101FB03F313440D331B7831
:100DF800442B02D10423FB7168E03B68033B364A6D
:100E0800C82101FB03F313441E331B78412B39D14E
:100E18003B68033B304AC82101FB03F313441F33EB
:100E28001B784C2B2ED13B68033B2B4AC82101FB76
:100E380003F3134420331B78522B23D13B68033B25
:100E4800254AC82101FB03F3134421331B78452BA2
:100E580018D13B68033B204AC82101FB03F3134424
:100E680022331B78412B0DD13B68033B1A4AC8211A
:100E780001FB03F3134423331B78442B02D10423CF
:100E8800FB7123E03B68033B134AC82101FB03F3D2
:100E9800134408331B784C2B18D13B68033B0E4A8C
:100EA800C82101FB03F3134409331B78492B0DD1E7
:100EB8003B68033B084AC82101FB03F313440A3388
:100EC8001B784E2B02D10523FB71FFE700BF0C37BF
:100ED800BD465DF8047B70472800002080B483B0CD
:100EE80000AF03463960FB713B68033B474AC821A2
:100EF80001FB03F3134408331B78432B5AD13B6897
:100F0800033B424AC82101FB03F3134409331B780E
:100F18004F2B4FD13B68033B3C4AC82101FB03F3ED
:100F280013440A331B784E2B44D13B68033B374AA2
:100F3800C82101FB03F313440B331B784E2B39D123
:100F48003B68033B314AC82101FB03F313440C33CC
:100F58001B78452B2ED13B68033B2C4AC82101FB4B
:100F680003F313440D331B78432B23D13B68033B16
:100F7800264AC82101FB03F313440E331B78542B74
:100F880018D13B68033B214AC82101FB03F31344F2
:100F98000F331B780D2B0DD13B68033B1B4AC8212F
:100FA80001FB03F3134410331B780A2B02D10623E9
:100FB800FB7124E0154B03F51C4348331B78432B86
:100FC8001DD1124B03F51C4349331B784C2B16D10A
:100FD8000E4B03F51C434A331B784F2B0FD10B4B99
:100FE80003F51C434B331B78532B08D1074B03F5F0
:100FF8001C434C331B78452B01D10723FB7100BFE1
:101008000C37BD465DF8047B704700BF2800002000
:1010180080B582B000AF78600B46FB7049F640425D
:1010280000210A4803F0A2FAC8220021084803F068
:101038009DFA7B6800221A60064B03F55643F1338C
:10104800FA781A7000BF0837BD4680BD300000200E
:10105800709C00202800002090B585B000AF5B4B45
:101068001B78042B00F2AD8001A252F823F000BFD8
:10107800C91100088D100008A510000839110008D2
:101088008B110008514B00225A60514B1B681846BF
:1010980000F0DEF84D4B02221A7092E04D4B03F53A
:1010A8005643FC331B68494A5360484B5B68002B26
:1010B80001D100F079F90023FB601CE0434B5B6829
:1010C80003F1006101F54041424AFB6803F54453CE
:1010D80008339B0013445B684FF000041A4623460C
:1010E800022000F03FFE394B5B680433374A5360F7
:1010F800FB680133FB60FA68354B1B689A42DDD305
:10110800344B03F55643F0331B78002B0AD12F4B91
:101118005A68304B03F55643FC331A602B4B0322B5
:101128001A704EE000F094FE284B04221A7048E032
:10113800284B03F55643EC3300221A6042F2107232
:101148000021254803F012FA49F6404200212348BD
:1011580003F00CFAC8220021214803F007FA4FF4E3
:10116800965200211F4803F001FA012219491E482E
:1011780002F010FB0420FFF761FC144B00221A70E8
:101188001FE000F009FC194B1B68BB6000233B60A3
:101198003B6883F31488164B00221A60154801F047
:1011A80036FE114802F04CFB134B144A9A60134B5D
:1011B8001B687B607B6883F30888BB68984700E0FE
:1011C80000BF00BF1437BD4690BD00BF40D7002008
:1011D80048D7002028000020399D0020300000203A
:1011E800709C00204CC400208CD7002004C000084C
:1011F80010E000E04CD7002000ED00E000C000083F
:1012080080B500AF0D4801F0DEFD01224FF400412A
:101218000B4801F03DF901220A490B4802F0BAFADD
:101228000220FFF70BFC074B03F55643F23300226D
:101238001A70064B00221A7000BF80BD4CD70020E0
:10124800000C0240280000208CD7002040D7002046
:1012580090B585B000AF78600023FB608EE0FB6836
:1012680003F51D4310334F4A13440133184600F069
:10127800DBF803461B015CB2FB68013303F51D4331
:101288001033484A13440133184600F0CDF803469A
:101298005BB223435BB2FB72FB68023303F51D4369
:1012A8001033404A13440133184600F0BDF8034692
:1012B8001B015CB2FB68033303F51D431033394A45
:1012C80013440133184600F0AFF803465BB22343DA
:1012D8005BB2BB72FB68043303F51D431033314A1C
:1012E80013440133184600F09FF803461B015CB213
:1012F800FB68053303F51D4310332A4A13440133B1
:10130800184600F091F803465BB223435BB27B7248
:10131800FB68063303F51D431033224A1344013397
:10132800184600F081F803461B015CB2FB680733DE
:1013380003F51D4310331B4A13440133184600F0CC
:1013480073F803465BB223435BB23B72FB7A1A061F
:10135800BB7A1B0413437A7A12021A433B7A1A4364
:1013680010497B6803F5445308339B000B445A60CB
:101378007B6801337B60FB680833FB60094B03F52E
:101388005643EC331A68074B03F55643E8331B689A
:10139800D31A9A1EFB689A423FF661AF00BF143712
:1013A800BD4690BD2800002098B500AF00F02EFD86
:1013B8000221022000F08AFE0221032000F086FEAE
:1013C8000221042000F082FE0221052000F07EFEAA
:1013D8000221062000F07AFE0221072000F076FEA6
:1013E8000221082000F072FE0221092000F06EFEA2
:1013F80002210A2000F06AFE02210B2000F066FE9E
:10140800074B03F55643F8331B684FF000041A46A0
:1014180023460449022000F0A5FC00BF98BD00BF88
:10142800280000200080000880B485B000AF7860F4
:101438007B681B78302B01D10023FB737B681B78FA
:10144800312B01D10123FB737B681B78322B01D12F
:101458000223FB737B681B78332B01D10323FB73B7
:101468007B681B78342B01D10423FB737B681B78C2
:10147800352B01D10523FB737B681B78362B01D1F3
:101488000623FB737B681B78372B01D10723FB737B
:101498007B681B78382B01D10823FB737B681B788A
:1014A800392B01D10923FB737B681B78412B01D1B0
:1014B8000A23FB737B681B78422B01D10B23FB7338
:1014C8007B681B78432B01D10C23FB737B681B784B
:1014D800442B01D10D23FB737B681B78452B01D16D
:1014E8000E23FB737B681B78462B01D10F23FB73FC
:1014F800FB7B18461437BD465DF8047B704780B502
:1015080000AF00F089FA00F00BF800F0DFF800F007
:1015180065F800F0B1F8FFF773FEFFF79DFDFCE7F3
:1015280080B594B000AF07F120033022002118469F
:1015380003F01CF807F10C0300221A605A609A6045
:10154800DA601A610023BB60224B1B6C214A43F00E
:10155800805313641F4B1B6C03F08053BB60BB6844
:1015680000237B601C4B1B681B4A43F480431360B9
:10157800194B1B6803F480437B607B6802233B6242
:101588000123FB6210233B630023BB6307F12003A5
:10159800184600F0B1FF0346002B01D000F012F905
:1015A8000F23FB6000233B6100237B610023BB61A9
:1015B8000023FB6107F10C030021184601F00CFA27
:1015C8000346002B01D000F0FDF800BF5037BD46A0
:1015D80080BD00BF003802400070004080B586B072
:1015E80000AF07F1080300221A605A609A60DA60B7
:1015F8003B4600221A605A601D4B1E4A1A601C4B5B
:101608004FF47A525A601A4B00229A60184B42F2F1
:101618001072DA60164B00221A61154B00229A618B
:10162800134801F0A5FB0346002B01D000F0CAF8CF
:101638004FF48053BB6007F1080319460C4801F0CA
:1016480019FD0346002B01D000F0BCF800233B60D5
:1016580000237B603B461946054801F025FF0346F9
:10166800002B01D000F0AEF800BF1837BD4680BD92
:101678004CD700200004004080B500AF114B124A3F
:101688001A60104B4FF4E1325A600E4B00229A60F8
:101698000C4B0022DA600B4B00221A61094B0C221A
:1016A8005A61084B00229A61064B0022DA6105480C
:1016B80001F08AFF0346002B01D000F083F800BF39
:1016C80080BD00BF8CD700200044004080B588B0A2
:1016D80000AF07F10C0300221A605A609A60DA60C2
:1016E8001A610023BB60194B1B6B184A43F00103B6
:1016F8001363164B1B6B03F00103BB60BB6800232D
:101708007B60124B1B6B114A43F0080313630F4BAA
:101718001B6B03F008037B607B6800224FF4704169
:101728000B4800F0B5FE4FF47043FB6001233B61AA
:1017380000237B610023BB6107F10C0319460448B1
:1017480000F00CFD00BF2037BD4680BD00380240C8
:10175800000C024080B584B000AF78600C4B1B6869
:10176800FB600C4B03F55643F2331B78002B0BD16F
:10177800FB68B3F1FF3F07D04FF48051064800F0F3
:10178800A0FE064B04221A7000BF1037BD4680BD6C
:1017980000C0000828000020000C024040D70020AC
:1017A80080B582B000AF78607B681B68044A9342BA
:1017B80001D1FEF785FE00BF0837BD4680BD00BFDA
:1017C8000044004080B400AF00BFBD465DF8047B14
:1017D8007047000080B483B000AF00237B60104BDB
:1017E8005B6C0F4A43F4804353640D4B5B6C03F40A
:1017F80080437B607B6800233B60094B1B6C084A75
:1018080043F080531364064B1B6C03F080533B601A
:101818003B6800BF0C37BD465DF8047B704700BFCE
:101828000038024080B584B000AF78607B681B68E0
:101838000E4A934215D10023FB600D4B1B6C0C4ADA
:1018480043F0020313640A4B1B6C03F00203FB60B2
:10185800FB68002200211D2000F02BFA1D2000F05B
:1018680044FA00BF1037BD4680BD00BF00040040E9
:101878000038024080B58AB000AF786007F11403E1
:1018880000221A605A609A60DA601A617B681B68E5
:101898001D4A934233D100233B611C4B1B6C1B4AEE
:1018A80043F400331364194B1B6C03F400333B619E
:1018B8003B690023FB60154B1B6B144A43F0010383
:1018C8001363124B1B6B03F00103FB60FB680C23D3
:1018D8007B610223BB610023FB6103233B62072377
:1018E8007B6207F114031946094800F037FC00220F
:1018F8000021262000F0DDF9262000F0F6F900BFCF
:101908002837BD4680BD00BF004400400038024073
:101918000000024080B400AF00BFBD465DF8047B04
:10192800704780B400AFFEE780B400AFFEE780B434
:1019380000AFFEE780B400AFFEE780B400AF00BFA1
:10194800BD465DF8047B704780B400AF00BFBD465C
:101958005DF8047B704780B400AF00BFBD465DF8FA
:10196800047B704780B500AF00F0A8F800BF80BDC9
:1019780080B500AF024801F075FA00BF80BD00BF16
:101988004CD7002080B500AF024801F0B1FF00BF7E
:1019980080BD00BF8CD7002080B400AF084BD3F8BF
:1019A8008830074A43F47003C2F88830044B4FF07C
:1019B80000629A6000BFBD465DF8047B704700BFB7
:1019C80000ED00E0DFF834D0002103E00C4B5B5859
:1019D800435004310B480C4B42189A42F6D30B4A39
:1019E80002E0002342F8043B094B9A42F9D3FFF77F
:1019F800D3FF02F097FDFFF782FD70470000022039
:101A080018460008000000200C0000200C000020F0
:101A1800F0D70020FEE7000080B500AF0E4B1B6832
:101A28000D4A43F4007313600B4B1B680A4A43F4D6
:101A380080631360084B1B68074A43F48073136084
:101A4800032000F02BF9002000F008F8FFF7C2FE91
:101A58000023184680BD00BF003C024080B582B01C
:101A680000AF7860124B1A68124B1B7819464FF476
:101A78007A73B3FBF1F3B2FBF3F3184600F043F9C2
:101A88000346002B01D001230EE07B680F2B0AD8F8
:101A9800002279684FF0FF3000F00BF9064A7B68A6
:101AA8001360002300E0012318460837BD4680BDB7
:101AB80000000020080000200400002080B400AFCF
:101AC800064B1B781A46064B1B681344044A1360DE
:101AD80000BFBD465DF8047B704700BF08000020CA
:101AE800CCD7002080B400AF034B1B681846BD4616
:101AF8005DF8047B704700BFCCD7002080B485B068
:101B080000AF78607B6803F00703FB600C4BDB6871
:101B1800BB60BA684FF6FF031340BB60FB681A024C
:101B2800BB68134343F0BF6343F40033BB60044A0C
:101B3800BB68D36000BF1437BD465DF8047B7047AF
:101B480000ED00E080B400AF044BDB681B0A03F033
:101B580007031846BD465DF8047B704700ED00E0BA
:101B680080B483B000AF0346FB7197F90730002BB0
:101B78000BDBFB7903F01F02074997F907305B0974
:101B8800012000FA02F241F8232000BF0C37BD46BD
:101B98005DF8047B704700BF00E100E080B483B0CB
:101BA80000AF03463960FB7197F90730002B0ADB59
:101BB8003B68DAB20C4997F907301201D2B20B44EC
:101BC80083F800230AE03B68DAB20849FB7903F09E
:101BD8000F03043B1201D2B20B441A7600BF0C3734
:101BE800BD465DF8047B704700E100E000ED00E0D1
:101BF80080B489B000AFF860B9607A60FB6803F020
:101C08000703FB61FB69C3F10703042B28BF042307
:101C1800BB61FB690433062B02D9FB69033B00E077
:101C280000237B614FF0FF32BB6902FA03F3DA430A
:101C3800BB681A407B699A404FF0FF317B6901FA13
:101C480003F3D9437B680B40134318462437BD463A
:101C58005DF8047B7047000080B582B000AF786003
:101C68007B68013BB3F1807F01D301230FE00A4A6F
:101C78007B68013B53600F214FF0FF30FFF78EFF69
:101C8800054B00229A60044B07221A60002318466D
:101C98000837BD4680BD00BF10E000E080B582B0C7
:101CA80000AF78607868FFF729FF00BF0837BD46A6
:101CB80080BD80B586B000AF0346B9607A60FB731B
:101CC80000237B61FFF73EFF78617A68B96878691D
:101CD800FFF78EFF024697F90F3011461846FFF7B7
:101CE8005DFF00BF1837BD4680BD80B582B000AF2C
:101CF8000346FB7197F907301846FFF731FF00BF1D
:101D08000837BD4680BD80B582B000AF786078687E
:101D1800FFF7A2FF034618460837BD4680BD80B4CA
:101D280083B000AF78607B6893F83530DBB2022B64
:101D380004D07B6880225A6501230CE07B68052269
:101D480083F835207B681B681A687B681B6822F05B
:101D580001021A60002318460C37BD465DF8047B63
:101D68007047000080B586B000AFF860B960C7E979
:101D780000230123FB75234B1B7E012B01D102237A
:101D88003BE0204B01221A764CF2503000F070F8FC
:101D98000346FB75FB7D002B2BD1FB68002B05D17F
:101DA8003B781946B86800F019F916E0FB68012B72
:101DB80005D13B881946B86800F0ECF80DE0FB68DF
:101DC800022B05D13B681946B86800F0C1F804E059
:101DD800D7E90023B86800F08BF84CF2503000F0D7
:101DE80047F80346FB75084B1B69074A23F00103B4
:101DF8001361044B00221A76FB7D18461837BD463E
:101E080080BD00BFD0D70020003C024080B483B022
:101E180000AF0023FB710B4B1B69002B0BDA094B3E
:101E2800094A5A60074B094A5A60064B1B69002B3E
:101E380001DA0123FB71FB7918460C37BD465DF8C2
:101E4800047B7047003C024023016745AB89EFCD16
:101E580080B400AF054B1B69044A43F0004313618B
:101E680000231846BD465DF8047B7047003C0240DD
:101E780080B584B000AF78600023FB601A4B002265
:101E8800DA61FFF72FFEF86010E07B68B3F1FF3FDF
:101E98000CD07B68002B07D0FFF724FE0246FB68B6
:101EA800D31A7A689A4201D2032319E00F4BDB68F0
:101EB80003F48033002BE8D10C4BDB6803F00103FB
:101EC800002B02D0094B0122DA60084BDB6803F0D3
:101ED800F203002B03D000F0A3F8012300E0002355
:101EE80018461037BD4680BDD0D70020003C0240C0
:101EF80090B484B000AFF860C7E90023134B1B69A6
:101F0800124A23F440731361104B1B690F4A43F4C0
:101F1800407313610D4B1B690C4A43F001031361B5
:101F2800FB683A681A60BFF36F8FD7E900124FF069
:101F380000034FF0000413000024FA680432136011
:101F480000BF1037BD4690BC704700BF003C024040
:101F580080B483B000AF786039600D4B1B690C4AC0
:101F680023F4407313610A4B1B69094A43F4007355
:101F78001361074B1B69064A43F0010313617B6831
:101F88003A681A6000BF0C37BD465DF8047B70479D
:101F9800003C024080B483B000AF78600B467B8081
:101FA8000D4B1B690C4A23F4407313610A4B1B69E0
:101FB800094A43F480731361074B1B69064A43F0CF
:101FC800010313617B687A881A8000BF0C37BD460D
:101FD8005DF8047B704700BF003C024080B483B0CA
:101FE80000AF78600B46FB700C4B1B690B4A23F45F
:101FF80040731361094B094A1B691361074B1B693D
:10200800064A43F0010313617B68FA781A7000BF2F
:102018000C37BD465DF8047B704700BF003C0240AA
:1020280080B400AF274BDB6803F01003002B08D007
:10203800254BDB6943F01003234AD361214B10225F
:10204800DA60204BDB6803F02003002B08D01E4B1E
:10205800DB6943F008031C4AD3611A4B2022DA607B
:10206800184BDB6803F04003002B08D0164BDB69E4
:1020780043F00403144AD361124B4022DA60114B37
:10208800DB6803F08003002B08D00F4BDB6943F0BB
:1020980002030D4AD3610B4B8022DA60094BDB68DF
:1020A80003F00203002B08D0074BDB6943F0200341
:1020B800054AD361034B0222DA6000BFBD465DF8D2
:1020C800047B7047003C0240D0D7002080B485B024
:1020D80000AF78600B46FB700023FB60FB78002B99
:1020E80002D10023FB6010E0FB78012B03D14FF4F1
:1020F8008073FB6009E0FB78022B03D14FF4007377
:10210800FB6002E04FF44073FB60134B1B69124AFB
:1021180023F440731361104B1A690F49FB6813438A
:102128000B610D4B1B690C4A23F0F80313610A4B32
:102138001A697B68DB001343074A43F00203136103
:10214800054B1B69044A43F48033136100BF1437FD
:10215800BD465DF8047B7047003C024080B489B0FE
:1021680000AF7860396000237B6100233B61002366
:10217800BB610023FB616BE10122FB6902FA03F3F7
:102188007B613B681B687A6913403B613A697B69EC
:102198009A4240F05A813B685B68012B0BD03B6840
:1021A8005B68022B07D03B685B68112B03D03B6848
:1021B8005B68122B30D17B689B68BB61FB695B0055
:1021C800032202FA03F3DB43BA691340BB613B689D
:1021D800DA68FB695B0002FA03F3BA691343BB616F
:1021E8007B68BA699A607B685B68BB610122FB699E
:1021F80002FA03F3DB43BA691340BB613B685B68CF
:102208001B0903F00102FB6902FA03F3BA691343DD
:10221800BB617B68BA695A607B68DB68BB61FB6934
:102228005B00032202FA03F3DB43BA691340BB6184
:102238003B689A68FB695B0002FA03F3BA691343C7
:10224800BB617B68BA69DA603B685B68022B03D0C4
:102258003B685B68122B23D1FB69DA087B6808327C
:1022680053F82230BB61FB6903F007039B000F2280
:1022780002FA03F3DB43BA691340BB613B681A698E
:10228800FB6903F007039B0002FA03F3BA691343DF
:10229800BB61FB69DA087B680832B96943F8221028
:1022A8007B681B68BB61FB695B00032202FA03F3CE
:1022B800DB43BA691340BB613B685B6803F0030208
:1022C800FB695B0002FA03F3BA691343BB617B68DD
:1022D800BA691A603B685B6803F08053002B00F012
:1022E800B4800023FB605F4B5B6C5E4A43F4804321
:1022F80053645C4B5B6C03F48043FB60FB685A4A95
:10230800FB699B08023352F82330BB61FB6903F079
:1023180003039B000F2202FA03F3DB43BA6913405D
:10232800BB617B68514A93422BD07B68504A9342E9
:1023380025D07B684F4A93421FD07B684E4A934210
:1023480019D07B684D4A934213D07B684C4A93421C
:102358000DD07B684B4A934207D07B684A4A934228
:1023680001D107230EE008230CE006230AE0052329
:1023780008E0042306E0032304E0022302E001232B
:1023880000E00023FA6902F0030292009340BA6960
:102398001343BB613449FB699B080233BA6941F8AE
:1023A80023203A4B1B68BB613B69DB43BA69134086
:1023B800BB613B685B6803F48033002B03D0BA69C8
:1023C8003B691343BB61314ABB6913602F4B5B68A0
:1023D800BB613B69DB43BA691340BB613B685B681F
:1023E80003F40033002B03D0BA693B691343BB6184
:1023F800264ABB695360254B9B68BB613B69DB433D
:10240800BA691340BB613B685B6803F48013002B17
:1024180003D0BA693B691343BB611C4ABB6993602B
:102428001A4BDB68BB613B69DB43BA691340BB618C
:102438003B685B6803F40013002B03D0BA693B695F
:102448001343BB61114ABB69D360FB690133FB616C
:10245800FB690F2B7FF690AE00BF2437BD465DF8B1
:10246800047B7047003802400038014000000240F9
:102478000004024000080240000C02400010024024
:102488000014024000180240001C0240003C0140B9
:1024980080B483B000AF78600B467B8013467B70B6
:1024A8007B78002B03D07A887B689A6103E07B886D
:1024B8001A047B689A6100BF0C37BD465DF8047B3F
:1024C800704780B483B000AF78600B467B807B6830
:1024D8005A697B881A407B889A4204D17B881A04FF
:1024E8007B689A6102E07A887B689A6100BF0C3742
:1024F800BD465DF8047B704780B586B000AF786054
:102508007B68002B01D101235BE27B681B6803F029
:102518000103002B75D0A34B9B6803F00C03042B1D
:102528000CD0A04B9B6803F00C03082B12D19D4BD9
:102538005B6803F48003B3F5800F0BD1994B1B68DC
:1025480003F40033002B5BD07B685B68002B57D10A
:10255800012336E27B685B68B3F5803F06D1914B77
:102568001B68904A43F4803313601DE07B685B6806
:10257800B3F5A02F0CD18B4B1B688A4A43F48023F8
:102588001360884B1B68874A43F4803313600BE061
:10259800844B1B68834A23F480331360814B1B6888
:1025A800804A23F4802313607B685B68002B13D078
:1025B800FFF798FA386108E0FFF794FA02463B699A
:1025C800D31A642B01D90323FBE1764B1B6803F470
:1025D8000033002BF0D014E0FFF784FA386108E0EC
:1025E800FFF780FA02463B69D31A642B01D903230B
:1025F800E7E16C4B1B6803F40033002BF0D100E0DB
:1026080000BF7B681B6803F00203002B63D0654B97
:102618009B6803F00C03002B0BD0624B9B6803F004
:102628000C03082B1CD15F4B5B6803F48003002B61
:1026380016D15C4B1B6803F00203002B05D07B68A6
:10264800DB68012B01D00123BBE1564B1B6823F04B
:10265800F8027B681B69DB00524913430B603AE0C0
:102668007B68DB68002B20D04F4B01221A60FFF7F4
:1026780039FA386108E0FFF735FA02463B69D31AA0
:10268800022B01D903239CE1464B1B6803F002038C
:10269800002BF0D0434B1B6823F0F8027B681B69C2
:1026A800DB00404913430B6015E03F4B00221A60E2
:1026B800FFF718FA386108E0FFF714FA02463B6999
:1026C800D31A022B01D903237BE1364B1B6803F095
:1026D8000203002BF0D17B681B6803F00803002B72
:1026E80030D07B685B69002B16D0304B01221A6012
:1026F800FFF7F8F9386108E0FFF7F4F902463B699B
:10270800D31A022B01D903235BE1264B5B6F03F03D
:102718000203002BF0D015E0244B00221A60FFF7CB
:10272800E1F9386108E0FFF7DDF902463B69D31AA1
:10273800022B01D9032344E11A4B5B6F03F0020318
:10274800002BF0D17B681B6803F00403002B00F01A
:10275800A0800023FB75134B1B6C03F08053002BE8
:102768000FD10023BB600F4B1B6C0E4A43F0805304
:1027780013640C4B1B6C03F08053BB60BB680123D4
:10278800FB750B4B1B6803F48073002B21D1084B9E
:102798001B68074A43F480731360FFF7A3F9386195
:1027A80011E000BF0038024000004742800E474257
:1027B80000700040FFF796F902463B69D31A022BD6
:1027C80001D90323FDE0814B1B6803F48073002BC0
:1027D800F0D07B689B68012B06D17D4B1B6F7C4A30
:1027E80043F0010313671CE07B689B68052B0CD141
:1027F800774B1B6F764A43F004031367744B1B6FC8
:10280800734A43F0010313670BE0714B1B6F704A67
:1028180023F0010313676E4B1B6F6D4A23F004030B
:1028280013677B689B68002B15D0FFF75BF938614D
:102838000AE0FFF757F902463B69D31A41F288329A
:10284800934201D90323BCE0614B1B6F03F00203E1
:10285800002BEED014E0FFF745F938610AE0FFF7E6
:1028680041F902463B69D31A41F28832934201D9B1
:102878000323A6E0564B1B6F03F00203002BEED197
:10288800FB7D012B05D1524B1B6C514A23F0805321
:1028980013647B689B69002B00F092804C4B9B680B
:1028A80003F00C03082B5CD07B689B69022B41D199
:1028B800484B00221A60FFF715F9386108E0FFF766
:1028C80011F902463B69D31A022B01D9032378E098
:1028D8003F4B1B6803F00073002BF0D17B68DA696B
:1028E8007B681B6A1A437B685B6A9B011A437B6897
:1028F8009B6A5B08013B1B041A437B68DB6A1B0667
:10290800334913434B60334B01221A60FFF7EAF84F
:10291800386108E0FFF7E6F802463B69D31A022B54
:1029280001D903234DE02A4B1B6803F00073002BE9
:10293800F0D045E0274B00221A60FFF7D3F8386142
:1029480008E0FFF7CFF802463B69D31A022B01D9FA
:10295800032336E01E4B1B6803F00073002BF0D1F5
:102968002EE07B689B69012B01D1012329E0184BDC
:102978005B68FB60FB6803F480027B68DB699A4252
:102988001CD1FB6803F03F027B681B6A9A4215D191
:10299800FA6847F6C07313407A68526A93420DD1B9
:1029A800FB6803F440327B689B6A9A4206D1FB6855
:1029B80003F070627B68DB6A9A4201D0012300E071
:1029C800002318461837BD4680BD00BF0070004080
:1029D800003802406000474280B584B000AF78609C
:1029E80039607B68002B01D10123CCE0684B1B6860
:1029F80003F00F033A689A420CD9654B3A68D2B291
:102A08001A70634B1B6803F00F033A689A4201D0AF
:102A18000123B8E07B681B6803F00203002B20D079
:102A28007B681B6803F00403002B05D0594B9B6897
:102A3800584A43F4E05393607B681B6803F008032B
:102A4800002B05D0534B9B68524A43F46043936074
:102A5800504B9B6823F0F0027B689B684D491343F9
:102A68008B607B681B6803F00103002B44D07B68F4
:102A78005B68012B07D1474B1B6803F40033002B1D
:102A880019D101237FE07B685B68022B03D07B6848
:102A98005B68032B07D13F4B1B6803F00073002BC7
:102AA80009D101236FE03B4B1B6803F00203002BA5
:102AB80001D1012367E0374B9B6823F003027B6851
:102AC8005B68344913438B60FFF70CF8F8600AE041
:102AD800FFF708F80246FB68D31A41F2883293429E
:102AE80001D903234FE02B4B9B6803F00C027B6852
:102AF8005B689B009A42EBD1254B1B6803F00F03E0
:102B08003A689A420CD2224B3A68D2B21A70204BD9
:102B18001B6803F00F033A689A4201D0012332E0A0
:102B28007B681B6803F00403002B08D0194B9B68D3
:102B380023F4E0527B68DB68164913438B607B689B
:102B48001B6803F00803002B09D0124B9B6823F481
:102B580060427B681B69DB000E4913438B6000F001
:102B680021F801460B4B9B681B0903F00F030A4A27
:102B7800D35C21FA03F3094A1360094B1B68184612
:102B8800FEF76CFF002318461037BD4680BD00BF16
:102B9800003C024000380240F045000800000020D8
:102BA80004000020F0B585B000AF00237B6000234F
:102BB800FB6000233B600023BB60504B9B6803F025
:102BC8000C03042B07D0082B08D0002B40F08D8075
:102BD8004B4BBB608CE04B4BBB6089E0474B5B6861
:102BE80003F03F037B60454B5B6803F48003002BD5
:102BF80023D0424B5B689B094FF0000440F2FF1161
:102C08004FF0000203EA010504EA02063D4A02FB0E
:102C180006F1002202FB05F20A443A49A5FB01012C
:102C2800531819467B684FF000041A462346FDF7EF
:102C3800C7FA03460C46FB6049E0304B5B689B09CA
:102C48004FF0000440F2FF114FF0000203EA0105C3
:102C580004EA0206294632464FF000034FF000040A
:102C6800540144EAD1644B0119462246491B62EBE0
:102C780006024FF000034FF00004940144EA916407
:102C88008B015B1A64EB02044FF000014FF0000265
:102C9800E20042EA5372D9000B4614465B1944EB32
:102CA80006044FF000014FF00002A20242EA9352DC
:102CB80099020B461446184621467B684FF00004DB
:102CC8001A462346FDF77CFA03460C46FB600B4B7D
:102CD8005B681B0C03F0030301335B003B60FA687D
:102CE8003B68B2FBF3F3BB6002E0054BBB6000BF7F
:102CF800BB6818461437BD46F0BD00BF0038024017
:102D08000024F40040787D0180B400AF034B1B68B9
:102D18001846BD465DF8047B704700BF00000020E0
:102D280080B500AFFFF7F0FF0146054B9B689B0A93
:102D380003F00703034AD35C21FA03F3184680BD66
:102D4800003802400046000880B500AFFFF7DCFFFE
:102D58000146054B9B685B0B03F00703034AD35CF2
:102D680021FA03F3184680BD0038024000460008E7
:102D780080B582B000AF78607B68002B01D1012359
:102D88001DE07B6893F83D30DBB2002B06D17B68F1
:102D9800002283F83C207868FEF744FD7B68022215
:102DA80083F83D207B681A687B680433194610460F
:102DB80000F040FA7B68012283F83D200023184682
:102DC8000837BD4680BD80B485B000AF78607B68A9
:102DD8001B68DA687B681B6842F00102DA607B686E
:102DE8001B689B6803F00703FB60FB68062B07D092
:102DF8007B681B681A687B681B6842F001021A60CE
:102E0800002318461437BD465DF8047B704780B42C
:102E180083B000AF78607B681B68DA687B681B68E2
:102E280022F00102DA607B681B681A6A41F211130A
:102E38001340002B0FD17B681B681A6A40F2444389
:102E48001340002B07D17B681B681A687B681B68D6
:102E580022F001021A60002318460C37BD465DF8BF
:102E6800047B704780B582B000AF78607B681B68D0
:102E78001B6903F00203022B22D17B681B68DB6805
:102E880003F00203022B1BD17B681B686FF0020260
:102E98001A617B6801221A777B681B689B6903F0BB
:102EA8000303002B03D0786800F0A5F905E07868E3
:102EB80000F097F9786800F0A8F97B6800221A7783
:102EC8007B681B681B6903F00403042B22D17B6811
:102ED8001B68DB6803F00403042B1BD17B681B68A9
:102EE8006FF004021A617B6802221A777B681B68FC
:102EF8009B6903F44073002B03D0786800F07BF9DA
:102F080005E0786800F06DF9786800F07EF97B6874
:102F180000221A777B681B681B6903F00803082BDB
:102F280022D17B681B68DB6803F00803082B1BD1E0
:102F38007B681B686FF008021A617B6804221A77A5
:102F48007B681B68DB6903F00303002B03D07868F8
:102F580000F051F905E0786800F043F9786800F06E
:102F680054F97B6800221A777B681B681B6903F099
:102F78001003102B22D17B681B68DB6803F0100359
:102F8800102B1BD17B681B686FF010021A617B68DD
:102F980008221A777B681B68DB6903F44073002BEF
:102FA80003D0786800F027F905E0786800F019F98F
:102FB800786800F02AF97B6800221A777B681B681A
:102FC8001B6903F00103012B0ED17B681B68DB68CA
:102FD80003F00103012B07D17B681B686FF0010226
:102FE8001A617868FEF7B6FB7B681B681B6903F0FB
:102FF8008003802B0ED17B681B68DB6803F080039D
:10300800802B07D17B681B686FF080021A61786893
:1030180000F0D0FA7B681B681B6903F04003402B63
:103028000ED17B681B68DB6803F04003402B07D197
:103038007B681B686FF040021A61786800F0EFF84F
:103048007B681B681B6903F02003202B0ED17B686B
:103058001B68DB6803F02003202B07D17B681B6803
:103068006FF020021A61786800F09AFA00BF0837FA
:10307800BD4680BD80B584B000AF786039607B689C
:1030880093F83C30012B01D10223A6E07B68012292
:1030980083F83C207B68022283F83D207B681B680C
:1030A8009B68FB60FB6823F07703FB60FB6823F4F5
:1030B8007F43FB607B681B68FA689A603B681B6803
:1030C800402B67D0402B0BD8102B73D0102B02D875
:1030D800002B6FD078E0202B6CD0302B6AD073E0B7
:1030E800702B0DD0702B04D8502B33D0602B41D0CF
:1030F8006AE0B3F5805F66D0B3F5005F17D063E090
:103108007B6818683B6899683B685A683B68DB6865
:1031180000F0AAF97B681B689B68FB60FB6843F0BA
:103128007703FB607B681B68FA689A604CE07B68F1
:1031380018683B6899683B685A683B68DB6800F028
:1031480093F97B681B689A687B681B6842F4804225
:103158009A6039E07B6818683B6859683B68DB68A7
:103168001A4600F007F97B681B685021184600F0E2
:1031780060F929E07B6818683B6859683B68DB6838
:103188001A4600F026F97B681B686021184600F093
:1031980050F919E07B6818683B6859683B68DB6838
:1031A8001A4600F0E7F87B681B684021184600F0D3
:1031B80040F909E07B681A683B681B6819461046A5
:1031C80000F037F900E000BF7B68012283F83D205A
:1031D8007B68002283F83C20002318461037BD4640
:1031E80080BD80B483B000AF786000BF0C37BD46A7
:1031F8005DF8047B704780B483B000AF786000BF8F
:103208000C37BD465DF8047B704780B483B000AFCF
:10321800786000BF0C37BD465DF8047B704780B40A
:1032280083B000AF786000BF0C37BD465DF8047B03
:103238007047000080B485B000AF786039607B6863
:103248001B68FB607B68404A934213D07B68B3F1EC
:10325800804F0FD07B683D4A93420BD07B683C4A35
:10326800934207D07B683B4A934203D07B683A4A33
:10327800934208D1FB6823F07003FB603B685B68EE
:10328800FA681343FB607B682F4A93422BD07B6814
:10329800B3F1804F27D07B682C4A934223D07B68B8
:1032A8002B4A93421FD07B682A4A93421BD07B68E3
:1032B800294A934217D07B68284A934213D07B68E7
:1032C800274A93420FD07B68264A93420BD07B68EB
:1032D800254A934207D07B68244A934203D07B68EF
:1032E800234A934208D1FB6823F44073FB603B6890
:1032F800DB68FA681343FB60FB6823F080023B68D5
:103308005B691343FB607B68FA681A603B689A68DC
:103318007B68DA623B681A687B689A627B680A4A4B
:10332800934203D07B680C4A934203D13B681A69E5
:103338007B681A637B6801225A6100BF1437BD4657
:103348005DF8047B704700BF0000014000040040A6
:1033580000080040000C004000040140004001400B
:10336800004401400048014000180040001C004093
:103378000020004080B487B000AFF860B9607A6080
:10338800FB681B6A7B61FB681B6A23F00102FB6810
:103398001A62FB689B693B613B6923F0F0033B6160
:1033A8007B681B013A6913433B617B6923F00A037D
:1033B8007B617A69BB6813437B61FB683A699A61F0
:1033C800FB687A691A6200BF1C37BD465DF8047B4A
:1033D800704780B487B000AFF860B9607A60FB6866
:1033E8001B6A23F01002FB681A62FB689B697B6109
:1033F800FB681B6A3B617B6923F470437B617B68D4
:103408001B037A6913437B613B6923F0A0033B618B
:10341800BB681B013A6913433B61FB687A699A618F
:10342800FB683A691A6200BF1C37BD465DF8047B29
:10343800704780B485B000AF786039607B689B685E
:10344800FB60FB6823F07003FB603A68FB6813437A
:1034580043F00703FB607B68FA689A6000BF143783
:10346800BD465DF8047B704780B487B000AFF86054
:10347800B9607A603B60FB689B687B617B6923F479
:103488007F437B613B681A027B681A43BB6813431E
:103498007A6913437B61FB687A699A6000BF1C37BD
:1034A800BD465DF8047B704780B485B000AF786096
:1034B80039607B6893F83C30012B01D102235AE034
:1034C8007B68012283F83C207B68022283F83D2038
:1034D8007B681B685B68FB607B681B689B68BB60DC
:1034E800FB6823F07003FB603B681B68FA681343B2
:1034F800FB607B681B68FA685A607B681B68214A16
:10350800934222D07B681B68B3F1804F1DD07B6843
:103518001B681D4A934218D07B681B681B4A93425C
:1035280013D07B681B681A4A93420ED07B681B68CD
:10353800184A934209D07B681B68174A934204D003
:103548007B681B68154A93420CD1BB6823F0800343
:10355800BB603B685B68BA681343BB607B681B68E9
:10356800BA689A607B68012283F83D207B68002254
:1035780083F83C20002318461437BD465DF8047BC9
:10358800704700BF000001400004004000080040F0
:10359800000C0040000401400040014000180040B9
:1035A80080B483B000AF786000BF0C37BD465DF8CB
:1035B800047B704780B483B000AF786000BF0C37DD
:1035C800BD465DF8047B704780B582B000AF786077
:1035D8007B68002B01D101233FE07B6893F83930E9
:1035E800DBB2002B06D17B68002283F8382078688C
:1035F800FEF740F97B68242283F839207B681B6832
:10360800DA687B681B6822F40052DA60786800F098
:103618000DFC7B681B681A697B681B6822F4904262
:103628001A617B681B685A697B681B6822F02A024A
:103638005A617B681B68DA687B681B6842F4005231
:10364800DA607B680022DA637B68202283F83920FD
:103658007B68202283F83A20002318460837BD46A5
:1036680080BD80B588B002AFF860B9603B60134692
:10367800FB8000237B61FB6893F83930DBB2202B99
:1036880040F08380BB68002B02D0FB88002B01D15F
:1036980001237BE0FB6893F83830012B01D102232A
:1036A80074E0FB68012283F83820FB680022DA63A3
:1036B800FB68212283F83920FEF714FA7861FB6849
:1036C800FA889A84FB68FA88DA84FB68002283F80F
:1036D800382042E0FB68DB8C9BB2013B9AB2FB6866
:1036E800DA84FB689B68B3F5805F22D13B6800935E
:1036F8007B6900228021F86800F018FA0346002B45
:1037080001D0032342E0BB683B613B691B881A4632
:10371800FB681B68C2F308025A60FB681B69002B30
:1037280003D1BB680233BB6017E0BB680133BB60E1
:1037380013E03B6800937B6900228021F86800F061
:10374800F5F90346002B01D003231FE0BB685A1C80
:10375800BA601A78FB681B685A60FB68DB8C9BB2FE
:10376800002BB7D13B6800937B6900224021F868A1
:1037780000F0DCF90346002B01D0032306E0FB68C8
:10378800202283F83920002300E002231846183746
:10379800BD4680BD80B485B000AFF860B9601346FF
:1037A800FB80FB6893F83A30DBB2202B40D1BB6832
:1037B800002B02D0FB88002B01D1012339E0FB68E4
:1037C80093F83830012B01D1022332E0FB68012243
:1037D80083F83820FB68BA689A62FB68FA889A8589
:1037E800FB68FA88DA85FB680022DA63FB68222224
:1037F80083F83A20FB68002283F83820FB681B68AE
:10380800DA68FB681B6842F48072DA60FB681B6840
:103818005A69FB681B6842F001025A61FB681B6821
:10382800DA68FB681B6842F02002DA60002300E0D7
:10383800022318461437BD465DF8047B7047000024
:1038480080B582B000AF78607B681B68DA687B68F7
:103858001B6822F49072DA607B681B685A697B687F
:103868001B6822F001025A617B681B685B6903F0E0
:103878004003402B2AD17B681B685A697B681B6808
:1038880022F040025A617B685B6B002B13D07B6887
:103898005B6B164A1A657B685B6B1846FEF73FFA46
:1038A8000346002B1CD07B685B6B1B6D7A68526BE0
:1038B8001046984714E07B680022DA857B6820224E
:1038C80083F83A20786800F027F909E07B6800223D
:1038D800DA857B68202283F83A20786800F01CF9A2
:1038E800002318460837BD4680BD00BF2D3C0008A0
:1038F80080B588B000AF78607B681B681B68FB6187
:103908007B681B68DB68BB617B681B685B697B61E4
:1039180000233B610023FB60FB6903F00F033B615D
:103928003B69002B0DD1FB6903F02003002B08D065
:10393800BB6903F02003002B03D0786800F0F5F989
:10394800D1E03B69002B00F0B0807B6903F00103F4
:10395800002B05D1BB6903F49073002B00F0A58000
:10396800FB6903F00103002B0AD0BB6903F48073E1
:10397800002B05D07B68DB6B43F001027B68DA63C0
:10398800FB6903F00403002B0AD07B6903F00103F1
:10399800002B05D07B68DB6B43F002027B68DA639F
:1039A800FB6903F00203002B0AD07B6903F00103D3
:1039B800002B05D07B68DB6B43F004027B68DA637D
:1039C800FB6903F00803002B0FD0BB6903F0200349
:1039D800002B04D17B6903F00103002B05D07B6821
:1039E800DB6B43F008027B68DA637B68DB6B002BD8
:1039F80078D0FB6903F02003002B07D0BB6903F0E4
:103A08002003002B02D0786800F08FF97B681B68D0
:103A18005B6903F04003402B0CBF01230023DBB29A
:103A2800FB607B68DB6B03F00803002B02D1FB68AB
:103A3800002B31D0786800F0C3F87B681B685B699D
:103A480003F04003402B23D17B681B685A697B68CD
:103A58001B6822F040025A617B685B6B002B13D015
:103A68007B685B6B214A1A657B685B6B1846FEF7BF
:103A780056F90346002B16D07B685B6B1B6D7A6882
:103A8800526B104698470EE0786800F03BF80AE061
:103A9800786800F037F806E0786800F033F87B685B
:103AA8000022DA631EE000BF1CE0FB6903F080031C
:103AB800002B08D0BB6903F08003002B03D0786883
:103AC80000F0C5F80FE0FB6903F04003002B0AD0B3
:103AD800BB6903F04003002B05D0786800F00DF9AE
:103AE80000BF00E000BF2037BD4680BD053C000890
:103AF80080B483B000AF786000BF0C37BD465DF876
:103B0800047B704780B483B000AF786000BF0C3787
:103B1800BD465DF8047B704780B483B000AF786021
:103B280000BF0C37BD465DF8047B704780B584B094
:103B380000AFF860B9603B601346FB712CE0BB69CD
:103B4800B3F1FF3F28D0BB69002B07D0FDF7CAFFB0
:103B580002463B68D31ABA699A421DD2FB681B68B1
:103B6800DA68FB681B6822F4D072DA60FB681B68AD
:103B78005A69FB681B6822F001025A61FB6820221F
:103B880083F83920FB68202283F83A20FB6800225A
:103B980083F8382003230FE0FB681B681A68BB68AA
:103BA8001340BA689A420CBF01230023DBB21A46BD
:103BB800FB799A42C3D0002318461037BD4680BD12
:103BC80080B483B000AF78607B681B68DA687B6874
:103BD8001B6822F49072DA607B681B685A697B68FC
:103BE8001B6822F001025A617B68202283F83A2080
:103BF80000BF0C37BD465DF8047B704780B584B0C4
:103C080000AF78607B689B6BFB60FB680022DA85FD
:103C1800FB680022DA84F868FFF774FF00BF1037EA
:103C2800BD4680BD80B584B000AF78607B689B6B73
:103C3800FB60FB680022DA85FB68202283F83A20C3
:103C4800F868FFF769FF00BF1037BD4680BD80B434
:103C580085B000AF78607B6893F83930DBB2212BF0
:103C680044D17B689B68B3F5805F1AD17B681B6A77
:103C7800FB60FB681B881A467B681B68C2F3080256
:103C88005A607B681B69002B05D17B681B6A9A1CEC
:103C98007B681A620EE07B681B6A5A1C7B681A6292
:103CA80008E07B681B6A591C7A6811621A787B687D
:103CB8001B685A607B68DB8C9BB2013B9BB27A68BD
:103CC8001946D184002B0FD17B681B68DA687B68A2
:103CD8001B6822F08002DA607B681B68DA687B6800
:103CE8001B6842F04002DA60002300E00223184615
:103CF8001437BD465DF8047B704780B582B000AFCD
:103D080078607B681B68DA687B681B6822F0400271
:103D1800DA607B68202283F839207868FFF7E8FEAC
:103D2800002318460837BD4680BD80B584B000AF73
:103D380078607B6893F83A30DBB2222B71D17B68CC
:103D48009B68B3F5805F23D17B689B6AFB607B68C7
:103D58001B69002B0ED17B681B685B689BB2C3F3A1
:103D680008039AB2FB681A807B689B6A9A1C7B6876
:103D78009A6229E07B681B685B689BB2DBB29AB2E7
:103D8800FB681A807B689B6A5A1C7B689A621BE0F6
:103D98007B681B69002B0AD17B681B6858687B68A5
:103DA8009B6A591C7A689162C2B21A700CE07B68EF
:103DB8001B685B68DAB27B689B6A581C7968886202
:103DC80002F07F02D2B21A707B68DB8D9BB2013B96
:103DD8009BB27A681946D185002B20D17B681B6875
:103DE800DA687B681B6822F02002DA607B681B684F
:103DF800DA687B681B6822F48072DA607B681B686B
:103E08005A697B681B6822F001025A617B6820228C
:103E180083F83A207868FDF7C3FC002302E000230A
:103E280000E0022318461037BD4680BD2DE9F04F4B
:103E380085B000AF78607B681B681B6923F440512C
:103E48007B68DA687B681B680A431A617B689A6832
:103E58007B681B691A437B685B691A437B68DB696B
:103E68001343FB607B681B68DB6823F4164323F06D
:103E78000C037A681268F9680B43D3607B681B6887
:103E88005B6923F440717B689A697B681B680A4305
:103E98005A617B68DB69B3F5004F40F08B817B6822
:103EA8001B68C14A934205D07B681B68BF4A93428E
:103EB80040F0BD80FEF748FFB860BB681D464FF074
:103EC8000006A846B14618EB080349EB09049846D2
:103ED800A14618EB050849EB06094FF000014FF021
:103EE80000024FEAC90242EA58724FEAC8018846FE
:103EF800914618EB050049EB06017B685B681D4697
:103F08004FF000066B1946EB06041A462346FCF7E9
:103F180057F903460C461A46A54BA3FB02235B0937
:103F28004FEA0318BB681D464FF00006A946B24683
:103F380019EB09034AEB0A049946A24619EB05094D
:103F48004AEB060A4FF000014FF000024FEACA029E
:103F580042EA59724FEAC9018946924619EB0500AF
:103F68004AEB06017B685B681D464FF000066B193B
:103F780046EB06041A462346FCF722F903460C468C
:103F88001A468B4BA3FB02135B09642101FB03F365
:103F9800D31ADB003233864AA2FB03235B095B009A
:103FA80003F4F8739844BB681D464FF00006A94611
:103FB800B24619EB09034AEB0A049946A24619EBE3
:103FC80005094AEB060A4FF000014FF000024FEADC
:103FD800CA0242EA59724FEAC9018946924619EB68
:103FE80005004AEB06017B685B681D464FF000063A
:103FF8006B1946EB06041A462346FCF7E1F803461C
:104008000C461A466A4BA3FB02135B09642101FBA9
:1040180003F3D31ADB003233654AA2FB03235B099F
:1040280003F007027B681B6842449A606FE2FEF760
:1040380077FEB860BB681D464FF00006A846B1463B
:1040480018EB080349EB09049846A14618EB050844
:1040580049EB06094FF000014FF000024FEAC90290
:1040680042EA58724FEAC8018846914618EB0500A3
:1040780049EB06017B685B681D464FF000066B192B
:1040880046EB06041A462346FCF79AF803460C4604
:104098001A46474BA3FB02235B094FEA0318BB6888
:1040A8001D464FF00006A946B24619EB09034AEB34
:1040B8000A049946A24619EB05094AEB060A4FF08D
:1040C80000014FF000024FEACA0242EA59724FEA71
:1040D800C9018946924619EB05004AEB06017B683F
:1040E8005B681D464FF000066B1946EB06041A463E
:1040F8002346FCF765F803460C461A462C4BA3FBEF
:1041080002135B09642101FB03F3D31ADB0032338A
:10411800274AA2FB03235B095B0003F4F873984466
:10412800BB681D464FF00006A946B24619EB0903C5
:104138004AEB0A049946A24619EB05094AEB060A16
:104148004FF000014FF000024FEACA0242EA5972EA
:104158004FEAC9018946924619EB05004AEB060168
:104168007B685B681D464FF000066B1946EB06043A
:104178001A462346FCF724F803460C461A460C4B0D
:10418800A3FB02135B09642101FB03F3D31ADB00D1
:104198003233074AA2FB03235B0903F007027B685B
:1041A8001B6842449A60B2E10010014000140140CB
:1041B8001F85EB517B681B68D74A934205D07B6803
:1041C8001B68D64A934240F0D180FEF7BDFDB86027
:1041D800BB689A464FF0000BD046D94618EB080347
:1041E80049EB09049846A14618EB0A0849EB0B0964
:1041F8004FF000014FF000024FEAC90242EA58723C
:104208004FEAC801884691461AEB08054BEB0906A8
:104218007B685B6819464FF000024FF000034FF0CF
:104228000004940044EA91748B001A4623462846F9
:104238003146FBF7C5FF03460C461A46B84BA3FBAD
:1042480002235B094FEA0318BB689B464FF0000C3A
:10425800D946E24619EB09034AEB0A049946A246F5
:1042680019EB0B094AEB0C0A4FF000014FF0000262
:104278004FEACA0242EA59724FEAC9018946924690
:104288001BEB09054CEB0A067B685B6819464FF087
:1042980000024FF000034FF00004940044EA9174C8
:1042A8008B001A46234628463146FBF789FF03460A
:1042B8000C461A469A4BA3FB02135B09642101FBC7
:1042C80003F3D31A1B013233954AA2FB03235B097C
:1042D80003F0F0039844BB689B464FF0000CD946A6
:1042E800E24619EB09034AEB0A049946A24619EB80
:1042F8000B094AEB0C0A4FF000014FF000024FEA9D
:10430800CA0242EA59724FEAC901894692461BEB32
:1043180009054CEB0A067B685B6819464FF00002FA
:104328004FF000034FF00004940044EA91748B00AE
:104338001A46234628463146FBF742FF03460C46F9
:104348001A46774BA3FB02135B09642101FB03F3B5
:10435800D31A1B013233724AA2FB03235B0903F011
:104368000F027B681B6842449A60D0E0FEF7D8FCD5
:10437800B860BB689A464FF0000BD046D94618EB98
:10438800080349EB09049846A14618EB0A0849EBCB
:104398000B094FF000014FF000024FEAC90242EA50
:1043A80058724FEAC801884691461AEB08054BEB4C
:1043B80009067B685B6819464FF000024FF000035E
:1043C8004FF00004940044EA91748B001A46234687
:1043D80028463146FBF7F4FE03460C461A46504B76
:1043E800A3FB02235B094FEA0318BB689B464FF007
:1043F800000CD946E24619EB09034AEB0A04994630
:10440800A24619EB0B094AEB0C0A4FF000014FF0DA
:1044180000024FEACA0242EA59724FEAC9018946C4
:1044280092461BEB09054CEB0A067B685B6819464C
:104438004FF000024FF000034FF00004940044EAEC
:1044480091748B001A46234628463146FBF7B8FE7E
:1044580003460C461A46324BA3FB02135B09642140
:1044680001FB03F3D31A1B0132332D4AA2FB0323AA
:104478005B0903F0F0039844BB689B464FF0000CBF
:10448800D946E24619EB09034AEB0A049946A246C3
:1044980019EB0B094AEB0C0A4FF000014FF0000230
:1044A8004FEACA0242EA59724FEAC901894692465E
:1044B8001BEB09054CEB0A067B685B6819464FF055
:1044C80000024FF000034FF00004940044EA917496
:1044D8008B001A46234628463146FBF771FE0346F1
:1044E8000C461A460E4BA3FB02135B09642101FB21
:1044F80003F3D31A1B013233094AA2FB03235B09D6
:1045080003F00F027B681B6842449A60FFE700BF14
:104518001437BD46BDE8F08F00100140001401407B
:104528001F85EB5170B50D4E0D4CA41BA410002532
:10453800A54209D10B4E0C4C00F020F8A41BA41086
:104548000025A54205D170BD56F82530984701359C
:10455800EEE756F8253098470135F2E7104600088F
:104568001046000810460008144600080244034696
:10457800934200D1704703F8011BF9E7F8B500BF73
:10458800F8BC08BC9E467047F8B500BFF8BC08BC2C
:044598009E46704784
:10459C0041542B43495053454E443D330D0A0000C2
:1045AC0068657800746573740000000041542B43F7
:1045BC00495053544152543D22544350222C2231E1
:1045CC0039322E3136382E302E3238222C313233CD
:1045DC00340D0A0041542B43495053454E443D344D
:1045EC000D0A00000000000000000000010203049E
:0C45FC000607080900000000010203048B
:08460800F0BBFF7F0100000080
:04461000AD010008F0
:044614008901000810
:0C4618000024F40010000000010000006D
:04000005080019CD09
:00000001FF
